:020000041008E2
:4000000000780408EB0208100D0000005103081051030810510308105103081000000000000000000000000000000000E14A08104D03081000000000814B0810E54B0810A3
:400040004D0308104D0308104D0308104D0308104D0308104D0308104D0308104D0308104D0308104D0308104D0308104D0308104D0308104D0308104D0308104D03081000
:400080004D0308104D0308104D0308104D0308104D0308104D0308104D0308104D0308104D0308104D0308104D0308104D0308104D0308104D0308104D0308104D030810C0
:4000C0004D0308104D0308104D0308104D0308104D0308104D0308104D0308104D0308104D0308104D0308104D0308104D0308104D0308104D0308104D0308104D03081080
:400100004D0308104D0308104D0308104D0308104D0308104D0308104D0308104D0308104D0308104D0308104D0308104D0308104D0308104D0308104D0308104D0308103F
:400140004D0308104D0308104D0308104D0308104D0308104D0308104D0308104D0308104D0308104D0308104D0308104D0308104D0308104D0308104D0308104D030810FF
:400180004D0308104D0308104D0308104D0308104D0308104D0308104D0308104D0308104D0308104D0308104D0308104D0308104D0308104D0308104D0308104D030810BF
:4001C0004D0308104D0308104D0308104D0308104D0308104D0308104D0308104D0308104D0308104D0308104D0308104D0308104D0308104D0308104D0308104D0308107F
:400200004D0308104D0308104D0308104D0308104D0308104D0308104D0308104D0308104D0308104D0308104D0308104D0308104D0308104D0308104D0308104D0308103E
:400240004D0308104D0308104D0308104D0308104D0308104D0308104D0308104D0308104D0308104D0308104D0308104D0308104D0308104D0308104D0308104D030810FE
:400280004D0308104D0308104D03081010B5054C237833B9044B13B10448AFF300800123237010BDB475020800000000EC930810084B10B51BB108490848AFF300800848A3
:4002C000036803B910BD074B002BFBD0BDE81040184700BF00000000B8750208EC93081074460208000000007047FFF7FDFF72B6104C114DAC4209DA21686268A368043B24
:40030000A2BFC858D050FAE70C34F3E70B490C4A00209142BCBF41F8040BFAE709480A490860BFF34F8F00F02BFB00F005FB00F0F1F9FEE78C750910A4750910B475020800
:400340003C4203080040020808ED00E0FEE7FEE700B504207146084202D0EFF3098001E0EFF30880043001F06DFFFEE772B6FEE7F0B583B00746224B009364230022272110
:40038000204801F047FA40B91D4A64211D4801F0B9FA10B93C2001F021FF194B0093642301222721174801F035FA0546A0B900263446032C00D10126114B009364233A19E3
:4003C0003146104801F0D0FA054601340E4805F07BFF0DB9032CECD92DB10C4B9D4202D0013B9D4207D1064A6421064801F08AFA18B1FF2002E0FF2000E0002003B0F0BDBA
:40040000B441030800006740D88308100520AA0010B516490B6893F87D00154A835823F4702343F4202383500B6893F87D108B5823F4700343F420038B5062B60D4A0E4910
:400440000E4800F0F1FF08B1FFF790FF0C4C0D4A21460A4801F0F6F8A04201D9FFF786FF064A136843F00043136010BD3441030800033240B4410308F88A081000006740D3
:40048000A086010084D7170010B582B002A8002340F8043DFFF76CFFFF2804D1204805F013FFFFF763FF9DF8043003F03F039DF8050040EA032004F039FF15A3D3E900239A
:4004C00005F0C4F80022174B04F096FF164C05F0A5F920609DF806009DF8073043EA0020800804F023FF0AA3D3E9002305F0AEF809A3D3E9002304F07FFF00220B4B04F0E7
:40050000C7FD05F08BF96060204602B010BD00BF0000000080FFCF400000000000A06440E883081000005940D07502080000444030B587B044F2080398420ED00C4603D817
:40054000B0F5805F09D031E045F2010398420CD045F20C0398420CD028E00822144BDA600021084602F040F920E00822104BDA601CE00B89152B19D10B6819780D4D29704B
:400580000D4805F02FFE01950123ADF808301523ADF8143003AB01AA92E8030083E80300184602F083FAE06811F01AF807B030BD00033240D87502080084081000B583B0AC
:4005C00002A9002341F8043D084B186803F02CFA019B3BB14FF08052054B1A60BFF34F8FBFF36F8F03B05DF804FB00BF3041030804ED00E008B5114805F066FE00210A2057
:4006000003F0B8F80E4B18600E4804F021FD01E009F022F80C4B1B78022BF9D10B4802F021F84FF0FF31064B186803F007FB09F013F8074805F048FEF3E700BF188408109B
:4006400030410308310508103C410308BD0508102884081030B587B0274805F035FE274805F032FEFFF710FF254C2060006804F06FFE02460B46234805F0B4FD236858688F
:4006800004F066FE02460B461F4805F0ABFD2268D2ED007AFCEEE77A17EE903A1B4C2371D2ED017AFCEEE77A17EE903A6371231D01930223ADF808301223ADF8143003ADA1
:4006C00001AB93E8030085E80300284602F0EEF929460F4802F07AFA237823B1012B05D142F2107004E041F2883001E044F6206003F05EFEB3E700BF4084081054840810EA
:400700002C410308608408107C840810D87502083841030830B583B062B604F067FC174B1868002302221946406805F0D5FDFFF76FFE4FF4FA6001F051FD114805F0C4FD86
:40074000002401940223009323464FF400520D490D4803F0A9FC054601940123009323464FF4806209490A4803F09EFC012D02D1084805F037FD03F0C9FCFEE730460208DA
:40078000AC840810C0840810F5050810CC84081055060810DC84081008B5012000F0E6FC08BD00BF704700BF5C4AD2F8803303F00F0303F1D00152F8212002F00702032AE6
:4007C00004D0042A05D092B9554914E0554A116811E003F1C002514951F8222002F01F02112A06D0132A04D04FF4FA4103E04E4901E04FF400418BBB484BD3F8902502F084
:400800000100D3F88825C2F30172D3F8883513F0405F07D0414BD3F88835C3F30173012B02D102E0012300E0002303B108B9032A46D13A48D0F88025C2F31103D0F88425EE
:40084000C2F30C02D0F88005C0F300600130B1FBF2F202FB03F2B2FBF0F131E0012B2FD12E4BD3F8402602F00100D3F80026C2F30172D3F8003613F0405F07D0274BD3F86A
:400880000036C3F30173012B02D102E0012300E0002303B108B9032A12D12048D0F8002602F07F02D0F80036C3F30423D0F80006C0F3044002FB01F2B2FBF3F2B2FBF0F1D2
:4008C000164BD3F88033C3F3011321FA03F215494A601648D0F89030C3F3072301330069000E0130B2FBF0F08860B2FBF3F3CB600B6103F5742202F23F220D48A0FB02021F
:40090000C2F387420A7503F2E7330A4AA2FB03239B098B61DB03CB61704700BF0000264000127A008C42020800366E010000214083DE1B43D34D621008B50D4801F046FD1D
:40094000FFF730FFFFF730FF00221146042000F0BFF9084800F052FA074B1B6893F8513013B1064800F0BAFA00F0FCF808BD00BF80880810E075020834410308FC840810C6
:4009800008B501F0BAFC074AD2F8883043F47003C2F88830BFF34F8FBFF36F8F01F0B1FC08BD00BF00ED00E010B504462146034800F06AFC0028F9D010BD00BF000066407B
:4009C000054BD3F80833C3F30803002BF8D0024BD3F84003704700BF000066401F4B98422DD00CD840282ED003D8E8B1102828D02FE0802829D0B0F5807F28D029E0184B8F
:400A0000984228D006D8B0F1204F0DD0154B984212D01EE0144B98420AD00133984209D0023B984215D101E0002070470F4870470F4870470F4870474FF4A000704707483D
:400A400070470D4870470D4870470D487047034870470C4870474FF4A400704706005200010000F0090000A0040000F001005200020052000300520001005000020050006B
:400A800005005200FF00520038B5124B1B6893F83130012B04D840F2C3110F4801F0C2FB0C4B1D682A6AB5F8B03013442C46D5F8B420D358002B0BDB084B1868FFF78EFFC9
:400AC0006B6801229A6063689B68002BFBD138BD034838BD344103084085081060770208020050001A4B186128B102230370FF23437000234380174B1B6893F850202AB3B5
:400B000000B583B0B3F93830ADF80030002301931149684601F028FBBDF90030002B08DB590903F01F03012202FA03F30B4A42F82130084B1B6893F8513023B10222084986
:400B4000012000F077FA03B05DF804FB704700BF6077020834410308E546020800E100E09D47020808B50248FFF7BCFF08BD00BF7477020838B50B4B1B68D3F8B4301B5818
:400B8000002B0DDA0D4604460B0C1B0423B140F2D521054801F046FBA9B26160002038BD024838BD344103088085081001008A0038B50368002B01DA002300E0094B73B95C
:400BC0000D460446C2600B0C1B0423B140F2BB21054801F027FBA9B2A160002038BD014838BD00BF01008A008085081038B504460D4619B99921084801F014FB074B1B686D
:400C0000D3F8B4301B59002B03DAE3682B60002038BD034838BD00BFC08508103441030801008A00254B1B6893F8313083423AD900293AD00B6813F01F0F38D170B50D4628
:400C400004461E4B1B6893F83130984204D340F2C3111B4801F0E6FA184B1B68186AB3F8B03004FB0304174E34602A68D2080021686804F03DFE00212046FFF77BFF346856
:400C800025B940F293310E4801F0CCFA2A4600212046FFF78DFF60B900210A4B1868FFF769FF40B970BD084870470748704706487047064870BD054870BD00BF3441030801
:400CC000808508107877020803018A0001018A0010B504461346B2B9A9B9124B1B6893F83130984204D340F2C3110F4801F09AFA0C4B1B681A6AB3F8B03004FB03240B4BCB
:400D00001C60002010BD43B149B1084A51609360111D2046FFF786FF10BD054810BD044810BD00BF34410308808508107877020803018A002DE9F0411B4B1B68DC68236875
:400D400083422CD90D464609A0EB4610012303FA00F819B901F0D1FA074600E00027124B18680368002B01DA002300E00F4B83B9626852F8263018EA030F05D023EA0803D9
:400D800042F82630002400E0094C0021FFF7F2FE00E0084C25B9384601F0B3FA00E0064C2046BDE8F08100BF7877020801008A00020188000301880004018A000B4B1B68A5
:400DC000DB681A6882420CD94109A0EB4110012202FA00F05B6853F82130184203D004487047044870470448704700BF787702080101880004018A0000018800024B1B6891
:400E00000BB9014B18607047847702082DE9F8430446884691461D46089F2C4B1B681BB9B5212B4801F0FEF9284B1B682C2000FB04F01C18EEB21E50C5F3072363602D0CD4
:400E4000A560244B1B6893F831309E4204D340F2C311214801F0E6F91E4B1B68196AB3F8B02006FB02162661666893F832309E4204D340F2DF11184801F0D4F9154B1B687A
:400E80001D6A803605EB46156561A668330C1B0423B14FF4FF71104801F0C4F9330C1B0423B140F2FF110C4801F0BCF9B3B243EA0646AE60C4F81C90C4F820800023A361A6
:400EC00017B1B7F90030A381BDE8F88384770208008608103441030880850810F0B58FB0044618B95221274801F09CF9A369072B03D95621234801F095F9E36A1BB958214A
:400F0000204801F08FF9236B1BB959211D4801F089F907AD04F114060FCE0FC537682F6002AD26460FCE0FC533682B60164B1B68B3F93620079B1344ADF83030089B0D9361
:400F4000A26AE16A0CAD00953B460A98FFF75EFF00210091069B0A460598FFF757FF216B284601F001F9BDF93030002B08DB590903F01F03012202FA03F3044A42F821305C
:400F80000FB0F0BD008608103441030800E100E0F8B506460F461D4614461AB9FD211F4801F040F91E4B1B681BB9FE211B4801F039F91B4B1B682C2101FB063001FB073158
:400FC0004B68012202FA03F31B04466802FA06F60269EAB18F69EFB91268002A01DA002200E0104AC2B92288134323600369DC6001238B614D620469330C1B0423B140F2AD
:40100000BB21094801F00EF9B2B2A2600020F8BD0648F8BD0648F8BD0548F8BD008608108477020801008A008085081004028A0007028A00F8B505460F4616460E4B1B6855
:4010400023B94FF4AF710D4801F0ECF80A4B1B682C2404FB0534236A23B94FF4B171074801F0E0F8E369B34204D9236A43F826700020F8BD0248F8BD8477020800860810CE
:401080000A028A0038B504460D46074B1B6823B94FF4C871054801F0C5F8034B1B682C2202FB0434A56238BD847702080086081070B582B000230193044620B940F2D111B0
:4010C000284801F0AFF8236923B94FF4E971254801F0A8F8636923B940F2D311214801F0A1F8236A23B94FF4EA711E4801F09AF86369DD682A0C20D012041A601B68206971
:40110000194B1B68D3F8B430C358002B15DA01A9FFF76CFD60B9019803681E0CDBB2E269934206D2226A52F8233013B1984700E0002631462069FFF71DFDADB275B16369DC
:40114000ADB21D601B68636A1BB198470023636202E0A36A03B198470023A36163691B6802B070BD008608103441030810B50446074B1B6823B940F2B111064801F052F87E
:40118000034B1B682C2000FB0430FFF791FF10BD847702080086081010B50446104B1B6823B940F22B210F4801F03CF80C4B1B682C2202FB0434B4F90C30002B0DDB5A096E
:4011C00003F01F03012101FA03F32032064941F82230BFF34F8FBFF36F8F002010BD00BF847702080086081000E100E010B504460D4B1B6823B940F24B210C4801F012F898
:40120000094B1B682C2202FB0434B4F90C30002B08DB590903F01F03012202FA03F3044A42F82130002010BD847702080086081000E100E010B4D0F8003303F00F03072BB1
:4012400006D900230DE0D0F84043CC54013300E000239342F7D306E0D0F8404321F8134001339342F8D35DF8044B704710B51446D0F80833C3F308039A4200D31C46224616
:40128000FFF7D8FF204610BD036813F4006F01D0802200E04022D0F80832C3F30803934203D0C0F84012012070470020704700BF10B4D0F8003203F00F03072B06D90023BE
:4012C0000DE0CC5CC0F84042013300E000239342F7D306E031F81340C0F8404201339342F8D35DF8044B704710B51446036813F4006F01D0802200E04022D0F80832C3F391
:401300000803D31AA34200D81C462246FFF7D0FF204610BD0346002940DB11F0C00F06D0002181664FF0805050602F4844E011F4807F36D111F0010F0ED050682B498842B1
:4013400032D1196E11F0804F0CBF012100214FF08050506026482FE011F0020F06D050682249884223D10021224825E011F0100F05D04FF080515160002108461CE0506897
:401380001A49884216D1517B11B14FF4881101E04FF4A0115160002108460DE0012116480AE00121154807E00121114804E00021134801E00021084679B1196821F00041D5
:4013C000196000219966D966196841F0004119601B684FF080535360704740F21712C3F8002FD3F8003F70470820AA00000013100620AA000420AA000320AA000720AA0073
:401400000520AA00036853B110B50446012000F0FDFE2368013B23601BB1002010BD002070474FF0004010BDF8B50B78012B03D00C7A1CB9002702E0002700E00127002843
:4014400000F0A780002900F0A680002A00F0A58016460C460546013BDBB2022B03D94F214F4800F0DFFE637803B163791BB150214B4800F0D7FE94F90330002B03DA5121FE
:40148000474800F0CFFE237913F0010F03D05221434800F0C7FE2369102B03D95321404800F0C0FEE368102B03D954213C4800F0B9FE637913B14FF4803100E00021E2796C
:4014C00012B14FF4807300E000230B4343F400632B60A37913B94FF4006300E000232269013A02F00F021A43E368013B1B01DBB21343227843EA82732B6617B140F20733BF
:4015000001E040F20713C5F800330FB1254B00E0254B2B6763780BB17F2300E00023C5F80433E3785B00DBB2227943EA0243C5F810331E4BC5F80032A3780BB1402300E08A
:401540000123C5F804320023C5F8C83EC5F8883EC5F8C83FC5F8883FC5F8083F2378022B02D040F2D11300E00023C5F8483F63783370A37873704FF0805373600020B06017
:40158000B06130623064F0633063F0627064B064F8BD0748F8BD0648F8BD0548F8BD00BF8486081003002A0013102A00070101000120AA0038B505460C4621B940F2C3216D
:4015C000194800F02FFE2B6E9B0F012B17D1174B2344174A93421ED9A4F5BD13A3F5D66302F5611202F56162934216D9A4F57104A4F533440F4B9C4211D80F4838BD84B13E
:40160000286EC0F303102B6E03F00F0318440230B4FBF0F038BD094838BD094838BD002038BD002038BD00BF8486081020AD88FF405B730040555C0440420F00801A06007F
:40164000A08601002DE9F84307468846914622B940F21221624800F0E5FD08F1FF34614B9C4204D940F213215D4800F0DBFD3B6E9B0F012B0DD149463846FFF79BFF054699
:40168000D7F8003323F40073C7F80033564B3B67A2E0544B9C421FD8544B984509D8A9F5BD13A3F5D663524A934218D90021012328E0504B984507D84F4B4B444F4A93423A
:4016C00013D9002101231DE04D4B4B444D4A934212D90021012315E00021012312E0002141F288352E460B460CE000214FF461754FF4C8660B4605E001214FF4BE754FF44F
:401700001B760023002B66D13F4BB3FBF9F3B6FBF3F404FB03F2964200D90134102C00D910240F2C8CBF00220122B5FBF3F606FB03F39D4200D90136102E00D91026A5195F
:40174000B9FBF5F50FE022B10F2C09D80134002206E00F2E04D801360F2C8CBF00220122A519B9FBF5F5454502D9A3191F2BEAD941B1D7F8003343F40073C7F80033234B0D
:401780003B6707E0D7F8003323F40073C7F80033154B3B67E31F092B04D940F283511C4800F040FD3B6E23F0F003013C2401E4B223433B66731F0B2B04D94FF4B46114486F
:4017C00000F030FD3B6E23F00F03013E06F00F061E433E6600E000252846BDE8F88300BF848608103F420F0013102A00A0860100502D1900801A060020AD88FFA0432100A9
:40180000807E25FFC02BAF0000CA9A3B03002A00C48608102DE9F04182B005460C4617469846089E11F0800F04D04FF4D961314800F0F8FC304B984504D940F2C9612D4883
:4018400000F0F0FC012F04D940F2CA61294800F0E9FC0023C5F8483F7368B3F1805F41D14FF47A7303FB08F30193244B7360012F14BF00230123737340F21713C5F8003F7E
:40188000D5F8003F0423C5F8C03FD5F8C03FD5F8043243F48033C5F80432D5F8043223F48033C5F80432D5F804326400E4B23C43C5F840420223AB66D5F8004F24F0F804B0
:4018C000E405E40DD5F8403F03F0C0031C4301A8FFF798FD54EA0001EED032462846FFF719FD00E0064840F2D113C5F8483F02B0BDE8F081848608103789410000001310F4
:401900000220AA0070B582B005460C461646134B994204D940F28C71114800F083FC736813F4801F17D04FF47A7303FB04F401941823AB66D5F8004F24F0EE04E405E40D13
:4019400001A8FFF75FFD54EA0001F3D032462846FFF7E0FC00E0034802B070BD37894100848608100220AA002DE9F04383B0074688461C460A9D914622B94FF4FB6124485C
:4019800000F050FC234B9C4204D940F2D971204800F048FCB8F1010F04D940F2DA711C4800F040FC6B68B3F5881F2BD14FF47A7303FB04F40194D7F8C06F06F00406D7F861
:4019C000001F40F201140C4001A8FFF71BFD44EA00010EB90029EED046B1D7F8403389F800300523C7F8C03FD7F8C03F2A463846FFF790FC034630B9B8F1000F03D10422AF
:401A0000BA6600E0044B184603B0BDE8F08300BF84860810378941000220AA002DE9F84305460C46036813F4006F02D04FF0800801E04FF04008D5F8007207F00F07A26A58
:401A4000012A19D9D4F82490E262561EB9F1000F00D026B940F27351254800F0E3FB324649462846FFF740FCA36A1B1AA362072F00D9400048446062D5F80832C3F3080325
:401A8000984533D0A36A012B30D10023A362072F02D8636A1E7801E0636A1E8800F02DFCC5F840624FF40073C5F8803FD5F8803F00F027FCD5F8883F23F4007222F00102A2
:401AC00042F4007623F4EE6323F0030323B140F22A41084800F0A6FBC5F8886F236843F002032360236B0BB101209847BDE8F88304870810408608102DE9F04105460C469E
:401B0000036813F4006F01D0802600E040267608A769D4F81C8017B1B8F1000F04D14FF49961314800F07EFB424639462846FFF79DFB236A03442362E3691B1AE36173BB4E
:401B4000A368FBB1E3689E4201D8013E00E05E1E2B6813F4006F01D0802300E040239E4204D34FF42071214800F05CFBD5F8043323F0FF03F6B21E43C5F804630123C5F8ED
:401B8000C83F02E00023C5F8C83F636823F001036360236B33B304209847BDE8F081A169D5F8002302F00F02072A00D940000844A0619E4216D95C1E2B6813F4006F01D06C
:401BC000802300E040239C4204D34FF42071074800F028FBD5F8043323F0FF02E3B21343C5F80433BDE8F0810487081040860810002800F0A48170B50546002900F0A1819E
:401C000016460C460B78022B03D93F21A24800F009FB637B023BDBB2062B03D940219E4800F000FBA37B3BB1022B05D0032B03D04121994800F0F6FA94F82130012B03D930
:401C40004221954800F0EEFA94F82830012B03D94321914800F0E6FA2378012B06D86368083B082B94BF0023012307E0A37F2BB16368013B062B94BF002301231BB14521EA
:401C8000854800F0CFFAA368053B042B03D94621814800F0C7FA6369FF2B03D947217E4800F0C0FAA369FF2B03D948217A4800F0B9FAA37C6BB1237833B9A368092B05D106
:401CC000A37B2BB1012304E0012302E0012300E000231BB14A21704800F0A4FA636B23F4366323F00D031BB14C216B4800F09AFAE36B23F4EE6323F003031BB14D21664870
:401D000000F090FA2378022B01D1A37F13B16268013A00E00022237F13B14FF4803100E00021A368082B02D84FF4006300E000230B4302F00F02134343F000732B60226B21
:401D40002B6813F4006F01D0802300E040239A4203D36221504800F065FAA26B2B6813F4006F01D0802300E040239A4203D36321494800F057FA626A2B6813F4006F01D00C
:401D8000802300E040239A4203D36421424800F049FA23781B0603F040732B64637F0BB1402200E00022A37C13B14FF4806300E000231343227C12B14FF4807200E000225C
:401DC0001343627C12B14FF4007200E000221A43E36A013B1B0403F470231343627B013A02F007021343A27B120102F030021343AB64237B13B14FF4807200E00022E37B37
:401E000023B92378022B03D1012302E0012300E0002313B14FF4007300E000231A43A368013B03F00F031343C5F80033227DA3691B0403F47F031343C5F81033E26AD5F8DF
:401E4000003303F00F0303339A4201D3102A03D97A21114800F0E6F9E37F23B12378012B03D0002302E0002300E0012313B14FF4807200E00022637B013B03F007031A4300
:401E8000A37B1B0103F0300313436B64237B2BB14FF4807203E000BF448708100022A368013B03F00F0313432278012A02D14FF4803200E000221343C5F8003294F83030E5
:401EC000C5F8043394F8203013B14FF0007200E0002294F82130012B02D14FF0807300E00023134394F82820012A02D14FF4803200E00022134394F8242013432B6594F8D3
:401F00003830C5F80432636B23F4926323F002031B051B0DC5F8C83FE36B23F08C035B055B0DC5F8883F76B1002070603060B060F0603062F0623063044B736370BD0448F0
:401F40007047034870BD002070BD00BFEFCDAB000160AA000B694A69934202D34869181A7047CA694869101A184470472DE9F04107460D46036813F4006F02D04FF08008C7
:401F800001E04FF040084FEA5808D7F80863C6F308062C6926E00134EB689C4200D100246B699C420FD12B6B0BB1082098476B699C4208D10023C7F8C83F0CB1013C13E0DD
:401FC000EC68013C10E0D7F84023D7F8003303F00F03072B02D8AB681A5502E0AB6823F81420013E002ED6D12C61EC6829463846FFF7B0FF201A804519D908B1441E00E0E2
:4020000000243B6813F4006F01D0802300E040239C4204D34FF42071064800F003F9D7F8040320F0FF03E0B21843C7F80403BDE8F08100BF4086081038B504460D46D0F849
:40204000003E13F0080F35D0D0F8CC3F13F448730AD04A681A434A60C0F8C03FD0F8C03F0B6B0BB110209847D4F8CC3F13F4006F09D06B6843F400636B604FF40063C4F85C
:40208000C03FD4F8C03FD4F8CC3F13F0010F11D0EB6923B129462046FFF72EFD05E0AB681BB129462046FFF761FF0123C4F8C03FD4F8C03FD4F8003E13F0040F2ED0D4F8EA
:4020C0008C3F13F4A0630AD02A681A432A60C4F8803FD4F8803F2B6B0BB120209847D4F88C3F13F0010F08D029462046FFF796FC0123C4F8803FD4F8803FD4F88C3F13F49A
:40210000007F0BD00022C4F8882F2B6823F001032B60EA622B6B0BB10220984738BD00BF38B50D4B9A680D4B9A420FD10D46044621B940F237110A4800F074F804F1100326
:40214000064A52F8230042F8235038BD1030054B53F8200038BD00BF00ED00E000400208848708100000081048B338B504460D464368072B03D93221134800F053F8B4F92B
:4021800000306268002B08DB5201D2B203F1604303F5614383F8002305E003F00F035201D2B20A49CA540A4B9A680A4B9A4208D12946B4F90000FFF7B3FF002038BD0648B5
:4021C0007047002038BD00BF8487081014ED00E000ED00E0004002080100560010B5044605E0084B186800F07FF8A4F50044B4F5004FF6D8044B186800FB04F000F074F8F7
:4022000010BD00BFA8420208A442020808B5034B1B7800FB03F000F067F808BDA042020801BEFEE738B50D46044C18220146204604F004F9A5610020FFF7F2FF104C020823
:40224000FEE700BF08B50268254BDA6142681A6282685A62C2689A620269DA6242691A6382695A63C2699A631E4A916AD963D16A1964516A5964516B9964926BDA64F1EEB5
:40228000103A13F0900F27D0026A154B1A65426A5A65826A9A65C26ADA65026B1A66426B5A66826B9A66C26BDA66026C1A67426C5A67826C9A67C26CDA67026DC3F88020F5
:4022C000426DC3F88420826DC3F88820C26DC3F88C20026EC3F89020FFF7B2FF08BD00BF104C020800ED00E00230800803D001300238FCD100BF00BF7047EFF3108072B61B
:40230000704780F31088704710B30246C3680BB303680BB330B40579114B03EB85035C682346002103E0934205D019465B69002BF9D1012000E0002080B124B9084B03EB70
:4023400085056A6000E04A6111610023536105E000207047002070470020704730BC70478877020850B310B402460479164B03EB840359680B4602E0934204D05B69002B31
:40238000FAD1002000E00120D0B18A420ED14B6933B10D4A02EB8404636000221A610FE0094B03EB84040023636009E01A69596951615A6922B11B69136101E0002070477C
:4023C0005DF8044B704700BF88770208014B1860704700BF3441030810B5012902D0082929D02EE01A4B1B78012B2CD00320FEF7E5FC184B984228D0FFF77FFF164B18606C
:40240000022007F02BF9044607F033F9022C05D1032805D0052805D1002404E00F4C02E0002400E00D4C0D4B9C420FD10A4B1868FFF767FF0AE0084B1868FFF762FF0024CA
:4024400004E0064C02E0054C00E0044C204610BD3C41030801018800C4770208FF00420008B502291CD0082914D001291ED1124B1B78012B1CD0FFF740FF104B5860022084
:4024800007F0ECF8022815D00C4B5868FFF739FF0B4808BD094B5868FFF733FF002008BD064B5868FFF72DFF054808BD044808BD034808BD002008BD3C410308C47702089C
:4024C000FF00420010B5044C2046FFF74BFF04F11800FFF747FF10BDAC420208B0B110B50B4A9060C36A03B1D3600024094B1C70094B1C70094B1C60094B1C7000F06CF96A
:40250000084B1C70084B1C70204610BD07487047C4770208504103085441030858410308554103083B410308404103080100160070B59AB0424D15AC28686968AA68EB682F
:402540000FC4286920604C22002102A803F0D0F93C4B029315AB049342F61013ADF8143005238DF81630384B9B681B69069341F2960307931B23ADF82030ADF8223003237F
:402580008DF8243004238DF8253006238DF8263010238DF827308DF828308DF829307223ADF84C3001238DF85030284C2046FFF7ABFE04F11800FFF7A7FE07F04BF808A889
:4025C00007F0A2F80346002836D1214B03931E4B9B68996B89B10B460DF12A0220311E685D689C68D868166055609460D060103310328B42F3D11B88138002A807F04CF84B
:402600000346B0B90122134B1A700023124A1370124A13700C4B9B681A6A00929B6ADB88ADF804300823ADF8063068460FF074FE034600210A4A116018461AB070BD00BFE3
:4026400038890810412D0810C4770208AC420208A44C02083C41030844410308454103085841030818B1034A1061002070470248704700BFC47702080100160008B5044BF1
:402680001B689847034B1B6803B1984708BD00BFE8770208D477020808B510B1034A52689047034B1B6803B1984708BDE8770208D477020870B5C0B006460C4615464FF4FE
:4026C00080720849684603F008F905E016F8012B6A401DF80250013C002CF7D1284640B070BD00BF4C89081008B50022FFF7E2FF08BD00BF08B5FFF700FE08BD08B5FFF7FA
:4027000000FE08BD08B50120FEF770FD08BD00BF08B50120FEF740FD08BD00BF08B5094B58601960012208491046FEF783FC034628B9002205490120FEF77CFC034618462F
:4027400008BD00BFE8770208992608107D26081038B515460B46024601210020FEF718FC044618B129460120FEF78CFC204638BD704700BF704700BF002070470048704771
:4027800011001600004870471100160000487047110016000048704711001600004870471100160000487047110016000048704711001600004870471100160000487047E9
:4027C0001100160000487047110016000048704711001600704700BF08B5024800F046FE08BD00BF04440208F8B5022872D8002972D10022134606E03B4CE45C012C01D923
:402800000132D2B20133002BF6D0012A0CD1374B1B681C6801EB8102930023445B681B79023BDBB2012B59D8314B1B78002B57D1304B1970E0B92D4F3C68236801EB810528
:40284000AA009D186668C1EBC1014B001E44B18829822168114449686468E45A0C8039680C682244526849680B445B8853801EE001281CD11D4F3C68236801EB8105AA0051
:402880009D186668C1EBC1014B001E44B1892982216811444D68616819440989298039680C682244526849680B445B895380124B18700E4B1B6818680E4B1B7803EB830314
:4028C0009A0010440BF0B0FA034650B90121084A117006E0094B04E0084B02E0084B00E0084B1846F8BD00BF44410308CC770208454103083A4103085541030801001600A7
:4029000002001600FF00160070B439B9144B1B681B689968CE7F00231D460EE0104B1B681B68D968CE7FF6E7CA5C52B10133CC5C1B2C01D0134400E00125B34201D2002D72
:40294000F2D05DB101338279CA54002204E0D4180134855C0D550132052AF8D970BC7047CC77020870B504460FF0F0FC054620BB134B1968086A228902EB82029300143B9E
:4029800003445A6812F0007F17D0E67B1B695A68CB69D21A06EB8606B318A28821680948184402F09AFFE37B074AD35C012B04D1064A137843F002031370284670BD00BFDD
:4029C000CC77020848410308404103083B41030830B587B002891A4B1B685B699B889A4229D1044601AB07C883E807000022ADF81020A289ADF8122040228DF814201846EE
:402A0000FFF7B0FF054680B923681B7803F002039BB22BB10B4B1B6821460B48984704E0084B1B68214609489847094A137803F0FE03137000E00025284607B030BD00BF40
:402A4000CC770208D07702080500010006000100504103084288531E9BB2142B1AD84178D1B910B40F4B1868046A02EB82029300143B23445A6812F0007F0FD01B695A68E5
:402A8000C369D31A01EB81011944074B5B5A1380002004E0012070470120704700205DF8044B7047CC77020848410308C8B1104B1B68196A038903EB83039B00143B0B4475
:402AC0005B6813F0007F0ED100B587B001AB00210491059107C883E807001846FFF742FF03E00E2070470120704707B05DF804FBCC770208F0B583B000283ED0064603881B
:402B0000ADF804309DF8053013B92348C35C00E00023012B34D9152935D87378D3B100251E4834E0601800EB80008300143B7344586810F0007F0BD070781B695B68FD69EC
:402B40005B1B00EB8000164D2844C35C13800125013401E000242546124B1F68D7F820E001EB81008300143B73441B895B1A9C420CD8002DD6D0094809E00025074806E03D
:402B80000025094803E00025044800E0034805B1002003B0F0BD00BF444103080100160048410308CC7702080700160000B583B00DF10602FFF79EFF20B9BDF8060000F081
:402BC000010000E0002003B05DF804FB30B3034631B330B587B00288ADF804209DF8052012B91448825C00E00022012A1AD91D460C460846FFF75AFFB0B921892846FFF7A6
:402C0000D5FF98B102AB94E8070083E807002A88ADF8142018460EF0D5FC08E00648704705487047054802E0054800E0054807B030BD00BF4441030801001600070016005C
:402C4000020016001700160000B583B00023ADF804308389ADF800300389ADF8023012238DF80430084B1B7813F0010F09D129B18DF8051068460EF085FC02E0C0680EF07D
:402C8000AFFC03B05DF804FB5041030810B4044688B10023194606E0104A52F82320944200D1012101330D4A1279934206D20029F2D0002003E00021094800E0002050B93B
:402CC00049B9064B1B792BB9044A42F823400133137100E003485DF8044B70475C410308010016000300160070B506460D460020044606E0084B53F824302946304698473E
:402D00000134054B1B799C4204D2044B1B7813F0010FEFD170BD00BF5C4103085041030883792BB100207047C25C32B9013300E00023052BF8D9002070470120704700BF83
:402D400070B58CB004460D46BF4A137843F00103137044F20803984200F04C823CD842F20403984200F0F08019D841F20203984200F0178108D8B0F5805F76D041F2010339
:402D8000984200F00B8157E341F20303984200F0418141F20403984200F049834CE343F2190398425BD00AD843F20103984200F0B98043F21203984200F0B4803CE344F2AE
:402DC0000603984200F01A8200F2CD8144F20403984200F032812FE345F20C03984200F0DD821BD845F20103984200F046820AD844F20A03984200F0B38144F210039842E3
:402E000000F0B18118E345F20203984200F0808245F20303984200F0B7820DE345F21003984200F0F6820AD845F20E03984200F0EA8245F20F03984200F0E882FCE245F2BF
:402E40001703984200F0EB8246F20103984200F0118245F21403984240F0EE82DCE27A4A137803F0FE031370E6E2784B1E683046FFF756FF60B130460BF0CCFF734E00211B
:402E80003068FFF741FD01213068FFF73DFD37E06F4B1A68936A1B791BB34FF0B05191F8043603F03F0391F8050600F03F0043EA801391F8030600F01F0043EA003391F865
:402EC000001601F07F0143EA4143126B1370604A1168096BC3F3072048701268126B1B0C93705B4E3368186B0BF094FF33680021186BFFF709FD33680121186BFFF704FD86
:402F0000534B1B68986A02300CF09AFB514A05AB1068516803C305A80BF0A0FF02224E4B1A7089E200234C4A13704C4A13704C4A13700A20FFF752F943F212039C4240F03F
:402F40007B82FFF7BFFA77E2464B1B6813F0010F40F072820023ADF814308DF816303C4E33689B6A93F900308DF8143005A80BF08FFF33689B6A93F901308DF814300123FB
:402F80008DF81530FF238DF8163005A80BF080FF344A136843F0010313604DE2FFF7A4FE4AE24978304B1B88ADF81430002319E02E4A32F81320ADF808209DF8092012B98E
:402FC0002B48825C00E00022012A0AD9274A12F81320914205D1254A32F81330ADF8143002E00133002BE3D09DF81530FF2B05D104D140F2CA311F48FFF714F9BDF8143021
:40300000ADF82030ADF81C30C3F3072329781A4AD15411E20B78002B40F00E820B7A33B9164B0022DA809A80154A1A604B60064A137803F0FE031370FEE149790A4B1B8868
:40304000ADF81430002337E050410308DC420208CC7702084C8A08103C410308454103080078020858410308548A08103841030844410308588A08105441030808780208C1
:40308000B4750208AF4A32F81320ADF80C209DF80D2012B9AC48825C00E00022012A0AD9A84A12F81320914205D1A64A32F81330ADF8143002E00133002BE3D09DF815305B
:4030C000FF2B05D104D140F2CA31A048FFF7AAF8BDF81430ADF82430ADF81430C3F3072369789B4AD154EB78002B40F0A5816979984B1B88ADF81430002319E0914A32F852
:403100001320ADF810209DF8112012B98E48825C00E00022012A0AD98A4A12F81320914205D1884A32F81330ADF8143002E00133002BE3D09DF81530FF2B05D104D140F27B
:40314000CA318248FFF76EF8BDF81430ADF82830ADF81430C3F3072301217F4AD1546BE1FFF7C2FD68E1AB7E002B3FD12B7E012B02D10022794B1A70E97E764B1B88ADF829
:403180001030002319E06F4A32F81320ADF814209DF8152012B96C48825C00E00022012A0AD9684A12F81320914205D1654A32F81330ADF8103002E00133002BE3D09DF86B
:4031C0001130FF2B05D104D140F2CA315F48FFF729F8BDF81030ADF82C30ADF81030C3F30723FF2B02D0297E5D4AD15402225D4B1A7021E102225B4B1A701DE1FFF774FD93
:40320000594B1B7813F0010F00F01681534B1B78012B03D10222514B1A700DE1032B03D100224E4B1A7007E1022B40F0058100224A4B1A704D4B1B685B684D4A1178C1EB57
:40324000C10203EB42039A79002A00F0F5809B88002B00F0F180474B1B78002B40F0EC800120FFF7C1FA002840F0E68001223B4B1A70E1E0FFF738FDDEE00B88ADF8003046
:403280009DF801301BB902212F4AD15405E023B940F286312D48FEF7C5FF6A782988294B23F812106B780021334AD15403EB8302324E91192D4B1B6818692B7803EB8303C1
:4032C00003F584531033034453F8060F90511B790B71687800EB800004213044FFF704FA6B7803EB830333441B7998420BD0244B1B680021234898476B7803EB83039819D0
:4033000000229A51027129462046FFF7EDFC93E00B88ADF804309DF805301BB900210A4AD15405E023B940F286310848FEF77AFF6B780021084AD15429462046FFF7D4FCC4
:403340007AE000BF3841030844410308588A081040410308548A08100078020845410308047802083C41030850410308CC7702083A4103085541030854410308484103083F
:40338000D0770208040001000B88ADF814301723ADF8163005A80EF001F94DE00846FFF717FB014620B929462046FFF79DFC01462846FFF749FC294B1B7813F0110F04D07C
:4033C000274B1B682946204698472A89234B1B7813F0010F11D0531E9BB2142B0DD912238DF81830ADF81620AB89ADF8143001238DF8193005A80EF0C5F8184A137803F065
:40340000FE03137018E0FFF76FFC15E0FFF76CFC12E0FFF769FC0FE0FFF766FC0CE00846FFF718FB29462046FFF75EFC04E00D4A137843F001031370084B1B7813F0110FD7
:4034400009D0064A137803F0FE031370044B1B682946204698470CB070BD00BF50410308D07702083B4103080020704730B108B5034A10600348FFF709FC08BD0248704741
:4034800014780208693408100100160070B539B900240AE015F8010BFDF786FA013402E016460D460024B442F4DB204670BD00BF70B561B900240FE0FDF782FAC0B228702B
:4034C00001340A2808D00D2806D0013502E016460D460024B442EFDB204670BD00F1080343604FF0FF328260C360036100230360704700BF00230361704700BF43684B607D
:403500009A688A609A68516099600861036801330360704730B40D68B5F1FF3F01D1026907E000F1080200E01A4653681C68A542FAD253684B6099608A6051600861036875
:403540000133036030BC704703694268816891608268416851605A68904201D182685A60002202611A68013A1A601868704700BF10B5044601F0C6FAA26BE36B9A4201D158
:40358000012400E0002401F0DFFA204610BD00BF10B5044601F0B6FAA36B0BB9012400E0002401F0D1FA204610BD00BF70B504461646856B026CFAB166B9806802F08DF97A
:4035C000A268236C1344A3606268934214D32368A36011E0C06802F080F9236C5B42E2681A44E26021688A4202D262681344E360022E01D105B1013D0135A563002070BD1C
:40360000026C72B110B50346C4681444C4604068844201D31868D8600846D96802F05DF910BD704738B5054601F06CFA95F8454064B20AE06B6A53B105F1240000F07CFFEF
:4036400008B101F007F8013C64B2002CF2DCFF2385F8453001F078FA01F054FA95F8444064B20AE02B6953B105F1100000F064FF08B100F0EFFF013C64B2002CF2DCFF2396
:4036800085F8443001F060FA38BD00BF38B540B94FF0200383F31188BFF36F8FBFF34F8FFEE704460D4601F02DFA2168E26B236C03FB021060600020A063A160013A02FB58
:4036C0000313E360FF2384F8443084F845307DB92369ABB104F1100000F02EFF80B14FF08052094B1A60BFF34F8FBFF36F8F07E004F11000FFF7F2FE04F12400FFF7EEFE11
:4037000001F022FA012038BD04ED00E010B5029B0C4609B91B6000E01A60D8631C6401211846FFF7B3FF10BD40B94FF0200383F31188BFF36F8FBFF34F8FFEE7F0B583B033
:40374000034611B101FB00F000E000201D4617460C46483001F07EFB064638B100903B4600F1480221462846FFF7D0FF304603B0F0BD00BF40B94FF0200383F31188BFF392
:403780006F8FBFF34F8FFEE7884208D24FF0200383F31188BFF36F8FBFF34F8FFEE710B50C4602220021FFF7BFFF034600B18463184610BDF0B585B0019240B94FF0200378
:4037C00083F31188BFF36F8FBFF34F8FFEE7044619B9026C1AB9012202E0012200E0002242B94FF0200383F31188BFF36F8FBFF34F8FFEE7022B03D1E26B012A02D102E04F
:40380000012200E0002242B94FF0200383F31188BFF36F8FBFF34F8FFEE71D460E4600F021FF18B9019B1BB9012302E0012300E0002343B94FF0200383F31188BFF36F8F80
:40384000BFF34F8FFEE7002701F05CF9A26BE36B9A4201D3022D21D12A4631462046FFF7A5FE636A6BB104F1240000F065FE88B14FF08052324B1A60BFF34F8FBFF36F8F7E
:4038800008E038B14FF080522D4B1A60BFF34F8FBFF36F8F01F058F901204EE0019B1BB901F052F9002048E01FB902A800F088FE012701F049F900F067FC01F023F994F830
:4038C00044305BB2B3F1FF3F02D1002384F8443094F845305BB2B3F1FF3F02D1002384F8453001F031F901A902A800F073FEF0B92046FFF73DFEA0B1019904F1100000F0B8
:40390000E3FD2046FFF78EFE00F0DAFC00289BD14FF080520A4B1A60BFF34F8FBFF36F8F92E72046FFF77EFE00F0CAFC8CE72046FFF778FE00F0C4FC002005B0F0BD00BF08
:4039400004ED00E02DE9F84340B94FF0200383F31188BFF36F8FBFF34F8FFEE7044619B9006C18B9012002E0012000E0002040B94FF0200383F31188BFF36F8FBFF34F8F6F
:40398000FEE7022B03D1E06B012802D102E0012000E0002040B94FF0200383F31188BFF36F8FBFF34F8FFEE71F469046894601F0BBF9EFF311864FF0200383F31188BFF3FD
:4039C0006F8FBFF34F8FA26BE36B9A4201D3022F1ED194F845506DB23A4649462046FFF7E5FDB5F1FF3F0DD1636A9BB104F1240000F0A2FD80B1B8F1000F0FD00120C8F855
:403A000000000CE06B1C5BB284F84530012006E0002004E0012002E0012000E0012086F31188BDE8F88300BF40B94FF0200383F31188BFF36F8FBFF34F8FFEE770B50446F6
:403A4000036C43B14FF0200383F31188BFF36F8FBFF34F8FFEE703681BB943681BB9012302E0012300E0002343B94FF0200383F31188BFF36F8FBFF34F8FFEE70E4601F08B
:403A800053F9EFF311854FF0200383F31188BFF36F8FBFF34F8FA26BE36B9A4218D294F845305BB20132A263B3F1FF3F0AD1636A83B104F1240000F03FFD68B176B10120C6
:403AC00030600CE001335BB284F84530012006E0002004E0012002E0012000E0012085F3118870BDF0B585B0019240B94FF0200383F31188BFF36F8FBFF34F8FFEE7044664
:403B000019B9036C1BB9012302E0012300E0002343B94FF0200383F31188BFF36F8FBFF34F8FFEE70E4600F09DFD18B9019B1BB9012302E0012300E0002343B94FF0200307
:403B400083F31188BFF36F8FBFF34F8FFEE7002700F0D8FFA56BC5B131462046FFF750FD013DA563236963B104F1100000F0E4FC38B14FF08052304B1A60BFF34F8FBFF391
:403B80006F8F00F0E1FF012053E0019B1BB900F0DBFF00204DE01FB902A800F011FD012700F0D2FF00F0F0FA00F0ACFF94F844305BB2B3F1FF3F02D1002384F8443094F81D
:403BC00045305BB2B3F1FF3F02D1002384F8453000F0BAFF01A902A800F0FCFCF0B92046FFF7D6FCA0B1019904F1240000F06CFC2046FFF717FD00F063FB0028A8D14FF0C4
:403C000080520D4B1A60BFF34F8FBFF36F8F9FE72046FFF707FD00F053FB99E72046FFF701FD00F04DFB2046FFF7B2FC00288FD0002005B0F0BD00BF04ED00E030B585B0AD
:403C4000019140B94FF0200383F31188BFF36F8FBFF34F8FFEE70446036C43B14FF0200383F31188BFF36F8FBFF34F8FFEE700F0F9FC18B9019B1BB9012302E0012300E0B0
:403C8000002343B94FF0200383F31188BFF36F8FBFF34F8FFEE7002500F034FFA36BA3B1013BA363236963B104F1100000F044FC38B14FF08052304B1A60BFF34F8FBFF35D
:403CC0006F8F00F041FF012053E0019B1BB900F03BFF00204DE01DB902A800F071FC012500F032FF00F050FA00F00CFF94F844305BB2B3F1FF3F02D1002384F8443094F8A1
:403D000045305BB2B3F1FF3F02D1002384F8453000F01AFF01A902A800F05CFCF0B92046FFF736FCA0B1019904F1240000F0CCFB2046FFF777FC00F0C3FA0028ACD14FF041
:403D400080520D4B1A60BFF34F8FBFF36F8FA3E72046FFF767FC00F0B3FA9DE72046FFF761FC00F0ADFA2046FFF712FC002893D0002005B030BD00BF04ED00E000230BE050
:403D8000074A52F8332032B9054A42F8331002EBC303586070470133092BF1D9704700BF6441030870B504460D46164600F0AAFE94F844305BB2B3F1FF3F02D1002384F8CD
:403DC000443094F845305BB2B3F1FF3F02D1002384F8453000F0B8FEA36B2BB93246294604F1240000F08AFB2046FFF71BFC70BD094B9B6A1B680BB9012300E0002323B130
:403E00004FF0FF32044BDA627047034B9A6AD268D2685268DA6270471878020810B50446006B01F09DF8204601F09AF810BD00BF2DE9F0478246894615469846089F099EE3
:403E40000A9C9200A521206B01F052FD236B05F18042013A03EB820525F00705002308E019F80310E21882F8341019F8032012B101330F2BF4D9002384F84330062F00D929
:403E80000627E762201DFFF735FB04F11800FFF731FB2461C7F10703A3616462002306E003F1100204EB8202002151600133042BF6D90023A36584F85C30424651462846A3
:403EC00000F0F2FD206006B13460BDE8F08700BF70B5002407E004EB8402930010481844FFF7FCFA0134062CF5D90E4C04F1BC063046FFF7F3FA04F1D0052846FFF7EEFAB0
:403F000004F11400FFF7EAFA04F1E400FFF7E6FA2046FFF7E3FAA662C4F8F85070BD00BF487802081878020838B5044600F0EAFD264BD3F8FC200132C3F8FC20D3F80031EE
:403F40004BB9224BC3F80041D3F8FC30012B10D1FFF7BEFF0DE01D4BD3F804314BB91B4BD3F80031DA6AE36A9A4202D8174BC3F80041164AD2F808310133C2F80831E36AE6
:403F8000D2F80C21934202D9104AC2F80C310F4D05F1300003EB83039A00211D1044FFF7ADFA00F0D1FDD5F804316BB1D5F80031DA6AE36A9A4207D24FF08052044B1A6050
:403FC000BFF34F8FBFF36F8F38BD00BF1878020804ED00E038B517E000F094FD0D4CD4F8F030DD68281DFFF7AFFAD4F8FC30013BC4F8FC30D4F81031013BC4F8103100F03D
:40400000A3FD2846FFF70AFF024BD3F81031002BE2D138BD1878020808B5FFF7DBFF064B1B6B012BF9D94FF08052044B1A60BFF34F8FBFF36F8FF0E71878020804ED00E0EF
:4040400070B504460E46174BD3F81451D3F800010430FFF779FAB4F1FF3F07D136B11148D0F800110431FFF749FA70BD2C440D4BD3F800315C60A54208D90A4BD3F8F800B3
:40408000D3F800110431FFF745FA70BD054DA86AD5F800110431FFF73DFAEB6A9C4200D2EC6270BD187802082DE9F04385B006460F4615469846900000F0CCFE60B1814655
:4040C000602000F0C7FE044610B1C0F8309004E0484600F045FF00E000248CB10023039302940D9B01930C9B009343462A4639463046FFF79DFE2046FFF716FF012001E06A
:404100004FF0FF3005B0BDE8F08300BF00B583B0194B019300230093802218491848FFF7C3FF012801D100F003FB012814D14FF0200383F31188BFF36F8FBFF34F8F114BD0
:404140004FF0FF32DA620122C3F804210022C3F8142100F079FD0BE0B0F1FF3F08D14FF0200383F31188BFF36F8FBFF34F8FFEE703B05DF804FB00BF34790208908A081030
:404180001940081018780208034AD2F818310133C2F81831704700BF18780208014BD3F814017047187802082DE9F041434BD3F81831002B71D1414BD3F814510135C3F8CD
:4041C0001451CDB99B6A1B6843B14FF0200383F31188BFF36F8FBFF34F8FFEE7374B9A6AD3F8F8109962C3F8F820D3F820210132C3F82021FFF7FCFD304BDB6A9D4203D2FD
:4042000000243EE0012400E000242C4B9B6A1B680BB9012300E0002323B14FF0FF32274BDA622EE0254B9B6ADB68DE6873689D4202D2224AD36224E006F104084046FFF779
:4042400083F9B36A1BB106F11800FFF77DF9F36A1A4AD2F80C21934202D9184AC2F80C31164F07F1300003EB83039A0041461044FFF744F9F26AD7F80031DB6A9A42C1D2E4
:40428000C3E70E49D1F80031DB6A03EB83039A000A44136B012B08D808E0084AD2F824310133C2F82431002400E00124034BD3F8283103B101242046BDE8F08118780208B2
:4042C000394BD3F8183143B94FF0200383F31188BFF36F8FBFF34F8FFEE770B500F012FC314BD3F81821013AC3F81821D3F81831002B52D12C4BD3F8FC303BBB00244FE0A9
:40430000294D2B6ADC6804F11800FFF71DF9261D3046FFF719F9E36AD5F80C21934201D9C5F80C31204D05F1300003EB83039A0031461044FFF7E2F8E26AD5F80031DB6A99
:404340009A4204D30122C5F8282100E00024164B5B69002BD4D10CB1FFF74AFD124BD3F8244164B1FFF720FF18B101220E4BC3F82821013CF6D100220B4BC3F824210A4B9D
:40438000D3F828315BB14FF08052084B1A60BFF34F8FBFF36F8F012402E0002400E0002400F0D2FB204670BD1878020804ED00E010B5B0B10446104BD3F8183143B14FF0B3
:4043C000200383F31188BFF36F8FBFF34F8FFEE7FFF7DAFE00212046FFF732FEFFF770FF00E0002038B94FF08052044B1A60BFF34F8FBFF36F8F10BD1878020804ED00E043
:40440000304BD3F8183123B101222E4BC3F82821704710B52B4B0022C3F82821D3F800311B6B1A68B2F1A53F0BD15A68B2F1A53F07D19A68B2F1A53F03D1DB68B3F1A53FB1
:4044400007D0204BD3F80001D3F80011343100F097FC1C4BD3F80C310AE043B94FF0200383F31188BFF36F8FBFF34F8FFEE7013B03EB83018A0013490A44126B002AECD03A
:4044800008469900CC18A2000244546B64685463303019448A0008320244944206D1606803EB83018A0007490A445063054903EB830082000A44526BD268C1F80021C1F865
:4044C0000C3110BD1878020840B94FF0200383F31188BFF36F8FBFF34F8FFEE710B50C46054BD3F800111831FFF714F801212046FFF7A6FD10BD00BF1878020838B540B9CE
:404500004FF0200383F31188BFF36F8FBFF34F8FFEE70C461546074AD2F800111831FEF7EDFF0DB14FF0FF3429462046FFF788FD38BD00BF1878020838B5C368DC6844B9BB
:404540004FF0200383F31188BFF36F8FBFF34F8FFEE704F118052846FEF7F6FF154BD3F81831ABB9251D2846FEF7EEFFE36A114AD2F80C21934202D90E4AC2F80C3103EB45
:4045800083039A0029460C481044FEF7B7FF03E029460A48FEF7B2FFE26A064BD3F80031DB6A9A4204D90120024BC3F8280138BD002038BD18780208487802082C780208CA
:4045C000034BD3F820210260D3F814314360704718780208F8B540B94FF0200383F31188BFF36F8FBFF34F8FFEE7054641B94FF0200383F31188BFF36F8FBFF34F8FFEE7E4
:404600000C4600F07FFA124BD3F814016968421A2368B3F1FF3F14D02F680D4ED6F82061B74201D088420ED29A4206D29B1A23602846FFF7C5FF002406E000232360012466
:4046400002E0002400E0012400F07EFA2046F8BD187802080122024BC3F82821704700BF18780208064BD3F804312BB1044BD3F818311BB9022070470120704700207047A2
:4046800018780208064B1A681368B3FA83F35B09036013B9D368186870470020704700BF4479020808B54160006191420AD8D21A83699A4211D2011D0A4B5868FEF72AFF31
:4046C000002008BD9A4201D2994208D2011D054B1868FEF71FFF002008BD012008BD012008BD00BF4479020870B500F00BFA0E4B9B68B3B90C4C04F10C063046FEF7EEFEA1
:4047000004F120052846FEF7E9FE2660656000220C210A20FFF708F8A06010B10349FFF72DFB00F011FA70BD44790208988A081000B583B0FFF7D8FF0D4B9B6853B10D4B9B
:40474000019304230093002378220B490B48FFF7ABFC00E0002040B94FF0200383F31188BFF36F8FBFF34F8FFEE703B05DF804FB4479020878790208A08A0810154A0810D9
:4047800040B94FF0200383F31188BFF36F8FBFF34F8FFEE730B585B015460446124A9068F0B11A46019102950394052913DCFFF759FF022807D10023089A01A90A48806880
:4047C000FEF7F8FF0DE000231A4601A906488068FEF7F0FF05E0002301A9FFF7B3F800E0002005B030BD00BF4479020870B582B029E0DB681E68DC68251D2846FEF7A4FE6A
:40480000636A20469847E369012B1CD1A36933449E4207D2636024612946104B1868FEF779FE10E0002100910B4632462046FFF7A7FF40B94FF0200383F31188BFF36F8F40
:40484000BFF34F8FFEE7054B1B681A68002AD0D1024A51681160536002B070BD4479020838B50546FFF79AFC0446074B9B6B984204D2FFF7BBFF01232B6001E000232B60D0
:40488000014B9C63204638BD4479020870B582B005460E46134B1B68DB68DC68201DFEF753FEE369012B18D1A1692B46324629442046FFF7F7FE80B1002100910B462A46F4
:4048C0002046FFF75DFF40B94FF0200383F31188BFF36F8FBFF34F8FFEE7636A2046984702B070BD4479020870B582B006460C46FFF74AFC01A8FFF7B3FF019B1BBB05467A
:4049000044B9B04206D3FFF7DBFC29463046FFF7BDFF1AE02CB10E4B5B681C68B4FA84F464092246711B0A4B9868FFF73BFAFFF7C7FC50B94FF08052064B1A60BFF34F8F9F
:40494000BFF36F8F01E0FFF7BBFC02B070BD00BF4479020804ED00E030B587B04DE0039B002B4ADB059C636913B1201DFEF7ECFD02A8FFF775FF039B092B3ED8DFE803F08A
:404980000505053D273A05053D270499A5690B46024629442046FFF785FE70B3636A20469847E369012B28D1A269002100910B46049802442046FFF7E3FEF0B94FF020036E
:4049C00083F31188BFF36F8FBFF34F8FFEE70499A16141B94FF0200383F31188BFF36F8FBFF34F8FFEE70346024601442046FFF759FE02E0204600F0B3FA002203A9044BC9
:404A00009868FFF76FF80028A9D107B030BD00BF4479020800B583B001A8FFF733FE0199FFF762FFFFF798FFF6E700BF82B0002301930D4B1B68B3F1FF3F08D04FF020039B
:404A400083F31188BFF36F8FBFF34F8FFEE74FF0200383F31188BFF36F8FBFF34F8F019B002BFCD002B07047E042020808480068006880F308884FF0000080F3148862B6A0
:404A800061B6BFF34F8FBFF36F8F00DF00BF000008ED00E0DFF80C00016841F4700101607047000088ED00E04FF0807340F8043C21F0010140F8081C054B40F80C3C40F8AC
:404AC000202C6FF0020340F8243C4438704700BF2D4A0810000000000000000000000000074B19680868B0E8F04F80F30988BFF36F8F4FF0000080F311887047AFF30080FB
:404B0000187902084FF0200383F31188BFF36F8FBFF34F8F0A4A136801331360012B0DD1084B1B6813F0FF0F08D04FF0200383F31188BFF36F8FBFF34F8FFEE7704700BFDE
:404B4000E042020804ED00E0094B1B6843B94FF0200383F31188BFF36F8FBFF34F8FFEE7013B034A13600BB983F31188704700BFE04202080000000000000000000000005E
:404B8000EFF30980BFF36F8F154B1A681EF0100F08BF20ED108A20E9F04F10602DE909004FF0200080F31188BFF34F8FBFF36F8FFFF726FC4FF0000080F3118809BC196832
:404BC0000868B0E8F04F1EF0100F08BFB0EC108A80F30988BFF36F8F704700BFAFF300801879020808B54FF0200383F31188BFF36F8FBFF34F8FFFF7D7FA18B14FF080524E
:404C0000024B1A60002383F3118808BD04ED00E0084A0023136008490B60084B1B680849A1FB03139B09013B06490B6007231360704700BF10E000E018E000E0984202082F
:404C4000D34D621014E000E010B582B0314B1A78D2B20192FF221A701B78DBB28DF803309DF803302C4A03F0200313700723536009E0294A5368013B53609DF803305B0052
:404C8000DBB28DF803309DF8033013F0800FF0D1214B5B68C3F10702032A08D04FF0200383F31188BFF36F8FBFF34F8FFEE7032A08D04FF0200383F31188BFF36F8FBFF335
:404CC0004F8FFEE71B0203F4E063134A5360019BDBB2104A1370114B1A6842F47F021A601A6842F07F421A60FFF792FF00240C4B1C60FFF7CFFE0B4A136843F0404313604C
:404D0000FFF7B4FEFFF77CFBFFF790FE204602B010BD00BF00E400E08079020820ED00E0E042020834EF00E0EFF305830F2B0FD9104A9B5CDBB2104A1278934208D24FF017
:404D4000200383F31188BFF36F8FBFF34F8FFEE70A4B1B6803F4E063074A5268934208D94FF0200383F31188BFF36F8FBFF34F8FFEE77047F0E300E0807902080CED00E02D
:404D800008B54FF0200383F31188BFF36F8FBFF34F8F4FF441710248FDF744FAFEE700BFA88A0810134A12F0070F07D0D11D21F00701C1F5404313440A4601E04FF440434C
:404DC0000D49C1F858250020C1F85C051344083B23F00703C1F8603558601860981A50601360C1F86405C1F868054FF00043C1F86C3570478879020830340308134B00E050
:404E000013461A688242FBD310B45C681919884203D14168214459601846446801198A420DD10B49D1F860158A4206D05268224442601A681268026002E0016000E002603F
:404E4000984200D018605DF8044B7047883903083034030870B50446FFF796F93F4BD3F860350BB9FFF79EFF3C4BD3F86C351C425CD194B1083414F0070F0ED024F007042F
:404E8000083404F0070343B14FF0200383F31188BFF36F8FBFF34F8FFEE7002C48D02F4BD3F868359C4245D82C4BD3F8585503F5AB6301E02B4615466A68944202D92A6856
:404EC000002AF7D1254AD2F86025954234D01E6808362A681A606B681B1B102B10D9281910F0070F08D04FF0200383F31188BFF36F8FBFF34F8FFEE743606C60FFF77EFF83
:404F00006A681649D1F868359B1AC1F86835D1F864158B4202D21149C1F864350F4BD3F86C351A436A6000232B6006E0002604E0002602E0002600E00026FFF7C1F916F0CB
:404F4000070F08D04FF0200383F31188BFF36F8FBFF34F8FFEE7304670BD00BF30340308B8B338B50346A0F1080550F8042C1949D1F86C1512EA010408D14FF0200383F3C7
:404F80001188BFF36F8FBFF34F8FFEE750F8080C40B14FF0200383F31188BFF36F8FBFF34F8FFEE7A4B198B91C4622EA010243F8042CFFF7E9F854F8043C064AD2F86815D4
:404FC0000B44C2F868352846FFF718FFFFF778F938BD70473034030808B502490248FDF72BF808BD004203080000664008B5114B1B785BB9104A11491148FCF7F9FD1149DD
:405000001148FDF7B1F801220A4B1A700E4BB3F90030002B08DB590903F01F03012202FA03F30A4A42F82130054A136843F00043136008BDA0390308004203080C8B081072
:4050400000006640D94F08103885081000E100E008B518B1094AD062002000E0084858B9084B1B782BB90548FDF738FA0122054B1A7008B9FDF75CFA08BD00BFE44202084F
:4050800001001600A139030881F0004102E000BF83F0004330B54FEA41044FEA430594EA050F08BF90EA020F1FBF54EA000C55EA020C7FEA645C7FEA655C00F0E2804FEAD0
:4050C0005454D4EB5555B8BF6D420CDD2C4480EA020281EA030382EA000083EA010180EA020281EA0303362D88BF30BD11F0004F4FEA01314FF4801C4CEA113102D040428A
:4051000061EB410113F0004F4FEA03334CEA133302D0524263EB430394EA050F00F0A780A4F10104D5F1200E0DDB02FA0EFC22FA05F2801841F1000103FA0EF2801843FAD5
:4051400005F359410EE0A5F120050EF1200E012A03FA0EFC28BF4CF0020C43FA05F3C01851EBE37101F0004507D54FF0000EDCF1000C7EEB00006EEB0101B1F5801F1BD398
:40518000B1F5001F0CD349085FEA30004FEA3C0C04F101044FEA445212F5800F80F09A80BCF1004F08BF5FEA500C50F1000041EB045141EA050130BD5FEA4C0C404141EB81
:4051C000010111F4801FA4F10104E9D191F0000F04BF01460020B1FA81F308BF2033A3F10B03B3F120020CDA0C3208DD02F1140CC2F10C0201FA0CF021FA02F10CE002F199
:405200001402D8BFC2F1200C01FA02F120FA0CFCDCBF41EA0C019040E41AA2BF01EB0451294330BD6FEA04041F3C1CDA0C340EDC04F11404C4F1200220FA04F001FA02F378
:4052400040EA030021FA04F345EA030130BDC4F10C04C4F1200220FA02F001FA04F340EA0300294630BD21FA04F0294630BD94F0000F83F4801306BF81F480110134013D66
:405280004EE77FEA645C18BF7FEA655C29D094EA050F08BF90EA020F05D054EA000C04BF1946104630BD91EA030F1EBF0021002030BD5FEA545C05D14000494128BF41F0E5
:4052C000004130BD14F580043CBF01F5801130BD01F0004545F0FE4141F470014FF0000030BD7FEA645C1ABF194610467FEA655C1CBF0B46024650EA013406BF52EA03350B
:4053000091EA030F41F4002130BD00BF90F0000F04BF0021704730B54FF4806404F132044FF000054FF0000150E700BF90F0000F04BF0021704730B54FF4806404F13204A2
:4053400010F0004548BF40424FF000013EE700BF42004FEAE2014FEA31014FEA02701FBF12F07F4393F07F4F81F06051704792F0000F14BF93F07F4F704730B54FF4607493
:4053800001F0004521F0004120E700BF50EA010208BF704730B54FF000050AE050EA010208BF704730B511F0004502D5404261EB41014FF4806404F132045FEA915C3FF449
:4053C000DCAE4FF003025FEADC0C18BF03325FEADC0C18BF033202EBDC02C2F1200300FA03FC20FA02F001FA03FE40EA0E0021FA02F11444C1E600BF70B54FF0FF0C4CF410
:40540000E06C1CEA11541DBF1CEA135594EA0C0F95EA0C0F00F0DEF82C4481EA030621EA4C5123EA4C5350EA013518BF52EA033541F4801143F4801338D0A0FB02CE4FF03D
:405440000005E1FB02E506F00042E0FB03E54FF00006E1FB03569CF0000F18BF4EF0010EA4F1FF04B6F5007F64F5407404D25FEA4E0E6D4146EB060642EAC62141EA555117
:405480004FEAC52040EA5E504FEACE2EB4F1FD0C88BFBCF5E06F1ED8BEF1004F08BF5FEA500E50F1000041EB045170BD06F0004646EA010140EA020081EA0301B4EB5C0473
:4054C000C2BFD4EB0C0541EA045170BD41F480114FF0000E013C00F3AB8014F1360FDEBF002001F0004170BDC4F10004203C35DA0C341BDC04F11404C4F1200500FA05F3A6
:4055000020FA04F001FA05F240EA020001F0004221F0004110EBD37021FA04F642EB06015EEA430E08BF20EAD37070BDC4F10C04C4F1200500FA04F320FA05F001FA04F2C9
:4055400040EA020001F0004110EBD37041F100015EEA430E08BF20EAD37070BDC4F1200500FA05F24EEA020E20FA04F301FA05F243EA020321FA04F001F0004121FA04F2E8
:4055800020EA020000EBD3705EEA430E08BF20EAD37070BD94F0000F0FD101F00046400041EB010111F4801F08BF013CF7D041EA060195F0000F18BF704703F00046520071
:4055C00043EB030313F4801F08BF013DF7D043EA0603704794EA0C0F0CEA135518BF95EA0C0F0CD050EA410618BF52EA4306D1D181EA030101F000414FF0000070BD50EA0E
:40560000410606BF1046194652EA430619D094EA0C0F02D150EA013613D195EA0C0F05D152EA03361CBF104619460AD181EA030101F0004141F0FE4141F470014FF0000034
:4056400070BD41F0FE4141F4780170BD70B54FF0FF0C4CF4E06C1CEA11541DBF1CEA135594EA0C0F95EA0C0F00F0A7F8A4EB050481EA030E52EA03354FEA013100F0888055
:405680004FEA03334FF0805545EA131343EA12634FEA022245EA111545EA10654FEA00260EF000419D4208BF964244F1FD0404F5407402D25B084FEA3202B61A65EB03054F
:4056C0005B084FEA32024FF480104FF4002CB6EB020E75EB030E22BFB61A754640EA0C005B084FEA3202B6EB020E75EB030E22BFB61A754640EA5C005B084FEA3202B6EB7F
:40570000020E75EB030E22BFB61A754640EA9C005B084FEA3202B6EB020E75EB030E22BFB61A754640EADC0055EA060E18D04FEA051545EA16754FEA06164FEAC30343EA89
:4057400052734FEAC2025FEA1C1CC0D111F4801F0BD141EA00014FF000004FF0004CB6E711F4801F04BF01430020B4F1FD0C88BFBCF5E06F3FF6AFAEB5EB030C04BFB6EBDD
:40578000020C5FEA500C50F1000041EB045170BD0EF0004E4EEA113114EB5C04C2BFD4EB0C0541EA045170BD41F480114FF0000E013C90E645EA060E8DE60CEA135594EACC
:4057C0000C0F08BF95EA0C0F3FF43BAF94EA0C0F0AD150EA01347FF434AF95EA0C0F7FF425AF104619462CE795EA0C0F06D152EA03353FF4FDAE1046194622E750EA41062C
:4058000018BF52EA43067FF4C5AE50EA41047FF40DAF52EA43057FF4EBAE12E74FEA4102B2F1E04324BFB3F5001CDCF1FE5C0DD901F0004C4FEAC0024CEA5070B2F1004FD9
:4058400040EB830008BF20F00100704711F0804F21D113F13872BCBF01F00040704741F480114FEA5252C2F11802C2F1200C10FA0CF320FA02F018BF40F001004FEAC1238F
:405880004FEAD32303FA0CFC40EA0C0023FA02F34FEA4303CCE77FEA625307D150EA01331EBF4FF0FE4040F44000704701F0004040F0FE4040F40000704700BF10B5013909
:4058C0000244904207D010F8013B11F8014FA342F7D0181B10BD002010BD10B5431E0A44914204D011F8014B03F8014FF8E710BD02440346934202D003F8011BFAE7704737
:405900002DE9F04788B0002B149F1299109EDDF84CA01D4627F02007BBBF03F100431D4600232D231446B8BF1446462F0B7003D0452F03D1013601E0032300E0022307AA98
:40594000049206AA03928DE8480422462B4600F0DBFE472F804602D1119BDB0728D5462F08EB060911D198F80030302B0AD1002200232046294602F085FC18B9C6F10106E4
:40598000CAF80060DAF800309944002200232046294602F077FC08B9302202E0CDF81C9006E0079B994503D9591C07911A70F8E7079B159AC8EB03034046136008B0BDE8E9
:4059C000F08773B503460029B8BF494203F8022BB4BF2D222B220929427019DD0DF1070216460A2591FBF5F405FB14113031092C02F8011D2146F5DC3031541E02F8011C87
:405A0000B4421A460AD214F8012B03F8012BF7E730241A46214402F8024B5970101A02B070BD00002DE9F04F91B00C46DDF8688016461F46054601F07FFD03680893184643
:405A400000F0F4FC00230E93D8F800300990073323F0070303F1080294F818A0D4F800B0C8F80020D3E90023C4E91223D4E9128929F000430B93CDF828804FF0FF32A74B12
:405A8000DDE90A0102F030FCA0B94FF0FF32A34BDDE90A0102F00AFC60B9002200234046494602F0F9FB10B12D2384F843309C4B9C4A0AE042464B464046494602F014FC37
:405AC000002800F09281984B984ABAF1470F8CBF90469846032323612BF0040323604FF000093DE0BAF1670F00F08A81BAF1470F00F08681236000210DF1330201936368B8
:405B000005900292009342464B460691CDF810A0CDF80CE02846FFF7F3FE0AF0DF03472B804600F08481BAF1650F0D9900F28D810139524604F150000D91FFF742FF0E9A1C
:405B40008318012A8146236100F37C812268D10700F178819DF8333013B12D2384F84330009733460FAA2146284600F09FF9013002D14FF0FF3096E123685A0501D4236983
:405B800065E0BAF1650F40F2D58000220023D4E9120102F077FB78B30123654A31462846B8470130E5D00E9B0D9A9A420BDB2368D80708D423689B0740F111814FF000082A
:405BC00004F1190906E1099B089A31462846B8470130CED04FF0000804F11A090E9B013B9845E7DA01234A4631462846B8470130BFD008F10108F1E70D9B002B29DC01239E
:405C00004B4A31462846B8470130B2D00D9B23B90E9B13B92368D907CCD5099B089A31462846B8470130A4D04FF0000904F11A0A0D9B5B42994509DA01235246314628465C
:405C4000B847013095D009F10109F1E70E9B4246A7E00E9AA36D9A42A8BF1A46002A914606DC4FF0000A29EAE97904F11A0B11E01346314642462846B8470130F1D178E7DD
:405C800001235A4631462846B84701303FF471AF0AF1010AA36DC9EB03029245F0DB08EB03090D9A0E9B9A420FDB2368DA070CD40E9B0D9A9844C9EB08089B1A9845A8BFFD
:405CC0009846B8F1000F08DC0FE0099B089A31462846B8470130EBD14BE743464A4631462846B84701303FF444AF4FF0000928EAE87804F11A0A09E0012352463146284641
:405D0000B84701303FF435AF09F101090D9A0E9B9B1AC8EB03039945EEDB4BE7FFFFEF7F2C9208103092081034920810389208103C9208100E9A012A01DCDB0738D50123FC
:405D4000424631462846B84701303FF412AF099B089A31462846B84701303FF40AAF00220023D4E9120102F08DFA20B14FF0000804F11A0A0EE00E9B08F10102013B19E0C4
:405D80000123524631462846B84701303FF4F1AE08F101080E9B013B9845F1DB4B4604F1500231462846B84701307FF403AFE0E60123424631462846B8470130EED1D8E69A
:405DC00001234A4631462846B84701303FF4D1AE08F10108E3680F9A9B1A9845F0DBE0680F9B9842B8BF18465DE06268531C0EA84BF480630DF1340E7FF474AE062201E008
:405E000012B90122626075E6002106910DF133018DE80C00236005904246CDF810A0CDF80CE002914B462846FFF76AFD80460D9BD81C02DB626893421DDDAAF1020A5FFA5F
:405E40008AFA70E60133236184E6BAF1660F14D10029636807DD216113B92268D2071DD501330B4419E013B92268D00701D5023313E0012311E04FF0670A0D9B0E9A934215
:405E800005DB22682361D10708D5013305E0002BD4BFC3F102030123134423610D9BA3654FF0000956E611B0BDE8F08F2DE9F04791461F460A698B68DDF820809342B8BFE7
:405EC0001346C9F8003091F8432006460C4612B10133C9F800302368990642BFD9F800300233C9F80030256815F0060510D104F1190A07E00123524639463046C04701302E
:405F00001AD00135E368D9F800209B1A9D42F1DB94F843302268003318BF012392060FD5E1185A1C302081F84300224494F8451082F84310023303E04FF0FF30BDE8F08741
:405F400004F1430239463046C0470130F4D02268D9F80050E36802F00602042A08BF5D1B2269A3680CBF25EAE57500259342C4BF9B1AED184FF000091A344D4509D0012373
:405F8000224639463046C0470130D5D009F10109F3E70020BDE8F0872DE9F04317460A7E85B06E2A984606460C460C9B01F1430E00F0AE8011D8632A22D009D8002A00F0AB
:405FC000BB80582A40F0CA8081F84520834955E0642A1ED0692A1CD0C0E0732A00F0B08009D86F2A2ED0702A40F0B8800A6842F020020A603EE0752A24D0782A3AD0ADE09F
:406000001A6801F14205111D1960136884F84230A8E021681A6811F0800F02D0111D196008E011F0400F02F10401196002D0B2F9003000E01368002B3CDA2D225B4284F89F
:40604000432037E021681A6811F0800F02D0111D196007E011F0400F02F10401196001D0138800E01368227E5C496F2A14BF0A2208221BE078225A4984F8452022681868F9
:4060800012F0800F00F104051D6003D1550601D5038800E00368D00744BF42F0200222601BB9226822F0200222601022002084F8430001E049490A226568A560002D08DBA7
:4060C000206820F0040020602BB9002D7DD175460CE0002B79D07546B3FBF2F002FB1033CB5C05F8013D03460028F5D1082A0BD12368DA0708D5236962689A42DEBF30236D
:4061000005F8013C05F1FF35C5EB0E0323612EE008681A68496910F0800F03D0101D1860136808E010F0400F02F104001860136801D0198000E0196000232361754616E046
:406140001A68111D1960156862680021284601F05FFA08B1401B6060636804E004F1420584F8422001232361002384F84330CDF800803B4603AA21463046FFF797FE013073
:4061800002D14FF0FF3026E023692A4639463046C0470130F5D023689B0710D5002504F1190907E001234A4639463046C0470130E7D00135E368039A9B1A9D42F2DBE06816
:4061C000039B9842B8BF184605E00B7884F8423004F142058AE705B0BDE8F0833E9208104F9208100FB40A4B13B51C6824B1A36913B9204601F016F905AB049AA16801933F
:40620000204601F00FFE02B0BDE8104004B070473046020870B50E46054618B183690BB901F000F9AB69AC6813B9284601F0FAF8224B9C4201D16C6808E0214B9C4201D107
:40624000AC6803E01F4B9C4208BFEC68A3891B0701D523693BB92146284600F057F910B14FF0FF3070BD013EA36816F8011F013BA36091B1002B04DAA269934206DB0A29B9
:4062800004D023685A1C22601970EDE72246284600F0E8F80130E7D1E2E7002B08DA22460A21284600F0DEF80130D9D00A2070BD23680A205A1C2260187070BD7092081051
:4062C00090920810B0920810024B01461868FFF7A1BF00BF304602082DE9F7431D464F4B1E6804460F46904626B1B36913B9304601F098F84A4B9C4201D1746808E0494BC6
:406300009C4201D1B46803E0474B9C4208BFF468B8F1020F04D0B8F1010F79D8002D77DB2146304601F014F8616B41B104F14403994202D0304601F09FFC00236363002375
:40634000A3616360A3891B0603D52169304601F093FCA38923F44A6323F00303B8F1020FA3811ED001AB6A462146304601F0E8F8A3891843A0810DB9009D00E02FBB28468F
:4063800001F03EF90746D0B9DDF80090A94502D14FF0FF3006E0484601F032F9074678B9F6E70020A38943F00203A3810023A36004F1470323602361012363612AE0A9466B
:4063C000A38943F08003A3814D46B36913B9304601F028F8B8F1010F08BFA389276004BF43F00103A381A389276103F0080080B2656158B113F001034FF000001DBF6D42C3
:40640000A060A561A56008BF184603E0A06001E04FF0FF3003B0BDE8F08300BF304602087092081090920810B0920810034613F8012B002AFBD1181A0138704710B503469C
:4064400042B111F8014B03F8014B013A002CF7D11A4400E010BD934202D003F8014BFAE710BD0000F8B50F461446064618B183690BB900F0D7FF224B9C4201D1746808E0EF
:40648000204B9C4201D1B46803E01F4B9C4208BFF468A369A360A3891A0709D523693BB123682069181A63699842FDB20FDB08E02146304600F02AF80028F1D04FF0FF30F2
:4064C000F8BD2146304600F043FF0028F6D1A368013BA36023685A1C22601F706269431C934204D0A389DB0707D50A2D05D12146304600F02DFF0028E0D12846F8BD00BF0F
:406500007092081090920810B0920810324B70B51D6806460C4625B1AB6913B9284600F081FF2E4B9C4201D16C6808E02C4B9C4201D1AC6803E02B4B9C4208BFEC68B4F935
:406540000C309AB215071DD4D00602D4092232603AE0510712D5616B41B104F14403994202D0304601F088FB00236363A38923F02403A3810023636023692360A38943F06C
:406580000803A38123694BB9A38903F42073B3F5007F03D02146304600F0F6FFA28912F0010305D00023A36063695B42A36103E0920758BF6369A36023695BB9B4F90C3026
:4065C00003F0800080B230B143F04003A3814FF0FF3070BD002070BD304602087092081090920810B09208102DE9F74F03690C699C42804600F38380013C01F114074FEA0B
:40660000840E00F1140657F8245006EB0E030193013556F82430B3FBF5F507EB0E09002D39D04FF0000A3846B446D34650F8042B93B205FB03A34FEA134A9BB2C3EB0B03DA
:40664000120CBCF800B005FB02A213FA8BF34FEA124A1FFA82FBDCF80020CBEB124202EB23429BB243EA024381454FEA224B4CF8043BDBD256F80E306BB9019B043B9E4228
:406680001A4602D3C8F8104005E01268043B002AF8D1013CF3E7404601F017FA00282CDB013530464FF0000E57F8041BD0F800C08AB2C2EB0E03090C13FA8CF3C1EB1C42A2
:4066C00002EB23429BB243EA0243B9454FEA224E40F8043BE8D256F8242006EB840362B9043B9E421A4602D3C8F8104005E01268043B002AF8D1013CF3E7284600E0002012
:4067000003B0BDE8F08F00002DE9F04F456A97B08246239CCDE9022345B9102000F070FFCAF82400456085600560C560DAF82430196859B15A684A60012393408B605046B9
:4067400000F0EBFFDAF8243000221A60039BA04A002BBFBF01232360039B23F00043B8BF0393DDF80C80A4BF0023236028F000431B0D1B0593421DD1229A42F20F731360EF
:40678000029B43B9934A944BC8F31300002814BF1846104600E09048249B002B00F04A85C37813B100F1080300E0C31C249A136000F040BDDDE902450022002320462946A7
:4067C00001F060FD074658B1229A01231360249B002B00F0228581481860013800F02ABD14AB019315AB009322462B46504601F0E7F9C8F30A56059056B1C5F3130343F032
:406800007F51204641F44011A6F2FF3611971DE0159B149E1E4406F23243202B0ADD029A06F21240C3F1400322FA00F008FA03F3184304E0C3F12000029B03FA00F0FEF754
:4068400065FD0123A1F1F871013E11930022644BFEF71EFC58A3D3E90023FEF7CDFD58A3D3E90023FEF716FC044630460D46FEF75DFD55A3D3E90023FEF7BEFD02460B46D8
:4068800020462946FEF706FC04460D4601F042FD0022834600232046294601F0FDFC58B15846FEF743FD02460B462046294601F0E9FC08B90BF1FF3BBBF1160F0DD8494913
:4068C00001EBCB01DDE90223D1E9000101F002FD30B10BF1FF3B002300E00123109300E01090149B9E1B731E089343BFC3F10009002308934FF00009BBF1000F07DB089B50
:40690000CDF834B05B4408930023099306E0CBF1000309930023CBEB09090D93209B092B27D8052BC4BF043B2093209BA3F10203CCBF00250125032B20D8DFE803F0060E38
:406940000204012302E0012308E000230C93219B002B1CDD069398461EE000230C93219B5B4403F1010806934346012BB8BF012312E00125002320930C9501E001230C93B2
:406980004FF0FF33069398460022122303E00123069398461A462192DAF8244000226260042101F114029A421ED86268013262604900F6E7AFF3008061436F63A787D23F32
:4069C000B3C8608B288AC63FFB799F501344D33F0000F07F60920810699208103D9208100000F83F109308106168504600F060FEDAF8243020601B680793B8F10E0F00F221
:406A00005D81002D00F05A819DED027BBBF1000F8DED0E7B31DDA04A0BF00F0302EBC30393ED007B4FEA2B14E2068DED0A7B0CD59A4BDDE90E01D3E90823FEF707FE04F039
:406A40000F04CDE90201032600E00226934D6CB1E30708D5DDE90A01D5E90023FEF7CCFCCDE90A01013664100835F0E7DDE90A23DDE90201FEF7EAFD20E0CBF1000404B357
:406A8000854B864D04F00F0203EBC203D3E90023DDE90E01FEF7B0FCCDE9020124110023022654B1E70705D5D5E90023FEF7A4FC0136012364100835F3E71BB1CDE902013F
:406AC00000E00226109BEBB1DDE902450022744B2046294601F0E0FBA0B1B8F1000F11D0069B002B40F3E6800BF1FF330A9300226C4B20462946FEF77FFC0136CDE9020190
:406B0000069F02E0CDF828B047463046FEF70EFCDDE90223FEF770FC0022634BFEF7BAFA0446A1F15075CFB90022604BDDE90201FEF7AEFA22462B46CDE9020101F0CAFBC6
:406B4000002840F04182224605F10043DDE9020101F0A2FB002840F02E82ABE00C9A4E4B791E002A4AD003EBC103D3E9002300204F49FEF76BFD22462B46FEF789FA079CBB
:406B800005460E46DDE9020101F0C4FB1290FEF7CDFB02460B46DDE90201FEF779FA129B303304F8013B2A463346CDE9020101F073FB002840F02183DDE9022300203849C3
:406BC000FEF766FA2A46334601F066FB002840F0D280079BE31ABB426CDA0022314B28463146FEF709FC002205460E462D4BDDE90201FEF701FCCDE90201C3E703EBC101F5
:406C000022462B46D1E90001FEF7F6FB079BCDE91201DC191D46DDE9020101F07BFB0646FEF784FB303602460B46DDE90201FEF72FFA05F8016BAC42CDE902014FF00002F0
:406C400023D11B4BDDE91201FEF724FA02460B46DDE9020101F03EFB002840F08C80DDE9122300201249FEF713FA02460B46DDE9020101F011FBE8B114F8013C302B04F1D5
:406C8000FF3240F0BA821446F6E7064BFEF7B4FBCDE90201BFE700BF10930810E89208100000F03F0000244000001C40000014400000E03FDDE90E34CDE90234159B002B6F
:406CC0007CDBBBF10E0F79DC8F4B03EBCB03D3E90067219B002B14DAB8F1000F11DC40F06C810022894B30463946FEF785FBDDE9022301F0E5FA45464646002840F05F8165
:406D000066E1079C32463B46DDE90201FEF79EFC01F000FB0546FEF709FB32463B46FEF76BFB0B460246DDE90201FEF7B1F905F1300E04F801EB079BC3EB040EF045CDE92A
:406D400002012ED102460B46FEF7A4F98046894602460B463046394601F09EFA78B942464B463046394601F08DFA002800F04782E90704D443E2DDF828B000E01C4614F8BA
:406D8000012C392A04F1FF3307D1079A9A42F5D1079930220BF1010B0A701A7801321A702DE200225A4BFEF727FB00220023CDE9020101F067FA0028A4D020E20C9A002A93
:406DC0002DD0209A012A0ADC119A12B103F2334302E0149BC3F13603099D4C4615E0099B08F1FF35AB42BFBF099B0995EA1A0D9BB7BF9B185D1B0D930025B8F1000FB9BF87
:406E0000C8EB090400234C464346089A01211A4450469944089200F01FFD064602E0099D0C9E4C465CB1089B002B08DDA342089AA8BF2346C3EB0909E41AD31A0893099B08
:406E4000002B1DDD0C9BABB185B131462A46504600F09CFD059A01460646504600F005FD05990746504600F058FC0597099B5A1B06D000E0099A0599504600F087FD0590E4
:406E80000121504600F0E8FC0D9B05465BB31A460146504600F07AFD209B012B054618DC029B83B9039BC3F3130373B9039B23F000473F0D3F054FB1089B013309F10109A9
:406EC0000893012702E0002700E0029F0D9B73B100E000272B6905EB8303186900F06FFCC0F1200004E0209B012BD9DD0D9F0120089B184410F01F000ED0C0F12003042B6E
:406F000008DDC0F11C0008E010930810000014400000244006D018461C30089B0344814404440893B9F1000F05DD4A460599504600F07AFD0590089B002B05DD29461A4658
:406F4000504600F071FD0546109BEBB12946059800F0BBFD002817DA00230A220599504600F0F2FB0C9B05900BF1FF3B002B00F05881002331460A22504600F0E5FB069B2B
:406F8000002B064637DC33E0B8F1000F2ADC209B022B27DDCDF81880069B83B929460522504600F0D1FB01460546059800F08DFD00280DDC03E03D4600E000252E46219B13
:406FC000079C6FEA030B0AE0DDF828B03D463E46079B079A5C1C312313700BF1010BB0460026F7E00C9BCDF8188023B9079CB1E0209B022BD0DC002C05DD31462246504631
:4070000000F012FD06469FB17168504600F050FB326902320446920006F10C010C30FEF75CFC01222146504600F0FEFC804600E0B046029BDDF81C9003F00103089329460E
:407040000598FFF7D1FA3146044600F13007059800F03BFD424602902946504600F051FDC36802463BB901460990059800F02DFD099A034600E0012311465046099300F040
:407080004CFB099B4BB9209A3AB9089A2AB9392F28D0029B002B1ADC1BE0029A002A04DB1AD1209AC2B9089AB2B9002B11DD01220599504600F0B8FC2946059000F005FDBA
:4070C000002802DC05D1FA0703D5392F0AD004F1310709F101040CE0002B09F101040BDD392F05D1392389F8003009F1010954E0013789F800706DE0079B069A04F8017CBB
:40710000E31A9342A1463AD000230A220599504600F01AFB464505904FF000034FF00A023146504604D100F00FFB0646804686E700F00AFB4146064600230A22504600F05F
:4071400003FB80467BE700230A220599504600F0FBFA059029460598FFF746FA00F1300704F8017B079B069AE31A9342EBDB079B012AACBF9B180133B046994600260122F3
:407180000599504600F050FC2946059000F09DFC002802DC15D1FB0713D54C4614F8013C392B04F1FF3209D1079B934204D10BF1010B3123079A02E01446EFE701331370AB
:4071C00008E04C4614F8013C302B04F1FF3201D11446F7E72946504600F09FFAB8F1000F0DD02EB1464503D03146504600F095FA4146504600F091FA01E0DDF828B0059991
:40720000504600F08AFA0023229A23700BF101031360249B1BB11C6001E008480AE0079808E0069B002B3FF7E1AE209B022B7FF7DDAEB1E617B0BDE8F08F00BF3C92081015
